:100000000C94EF030C9436040C9436040C943604D0
:100010000C9436040C9436040C9436040C94360478
:100020000C9436040C9436040C94871E0C94591FBF
:100030000C9408170C9436040C9436040C94360473
:100040000C9436040C9436040C9436040C94360448
:100050000C9436040C947C170C9436040C943604DF
:100060000C9436040C9436040C9436040C94360428
:100070000C9436040C9436040C9436040C94360418
:100080000C9436040C9436040C9436040C94360408
:100090000C9436040C9436040C9436040C943604F8
:1000A0000C9436040C9436040C943604DF05E105F8
:1000B000EC05E305E505E705E905EB05EE05F005CB
:1000C000F205FD05F405F605F805FA05FC05FF0542
:1000D000590D590D8B0D8B0DC90D170F170F170FDC
:1000E000E90D170F960E960E070F170F170F100F2B
:1000F000A30EA30EA30EA30EA30EA30EA30EA30E78
:10010000A30EA30EA30EA30EA30EA30EA30EA30E67
:10011000B40EC20EC90ED00EDA0EA20FA20FB40F8B
:10012000B40FAB0FB40FB40FB40FA20FA20FB00FE8
:10013000B40FB40FB00FC61FED1FDF20ED1FDF207F
:1001400039205C20DF20B220C120165C14001A0088
:100150000800150017001C0018000C001200130006
:10016000DE5C2B0004001600070009000A000B00EB
:100170000D000E000F0000002800E10000001D002F
:100180001B000600190005001100100036003700A2
:10019000E5002F61E300E20000002C0000002C418C
:1001A0000000E600025130713E0001001E001F00F9
:1001B0002000210022002300240025002600270023
:1001C00001000100010001000100010001005000D8
:1001D000520051004F000000010001000000AA0081
:1001E000A800A90001000100010001002D002E005F
:1001F00001000100010001000000010000000100F9
:10020000000001000100010001003A003B003C0039
:100210003D003E003F0040004100420043004400DA
:100220004500010001000100010001000100010082
:1002300033003400320000000100010000006400BF
:10024000010001000100010001000100380001006F
:100250000100010001000100000001000000010098
:100260000000010001000100005C44454255473A8E
:1002700020656E61626C65642E0A000A00253031CB
:100280003662003A200025303258000A722F63206F
:1002900030313233343536373839414243444546BC
:1002A0000A000A002530325820006B6579626F61C0
:1002B00072645F7265706F72743A20000A002530B4
:1002C0003258006B6579626F6172645F7365745F49
:1002D0006C65643A20003F00433E20004C25640AD0
:1002E0000074696D65725F72656164333228293A02
:1002F000202530346C580A006B6579626F61726436
:100300005F69646C653A2025580A006B6579626FF5
:100310006172645F70726F746F636F6C3A202558FE
:100320000A00686F73745F6B6579626F6172645FF6
:100330006C65647328293A2025580A000A092D2083
:10034000537461747573202D0A004743433A203477
:100350002E392E32204156522D4C4942433A2031FB
:100360002E382E3073766E204156525F41524348EC
:100370003A20617672350A004F5054494F4E533A35
:10038000204C5546412045585452414B4559204335
:100390004F4E534F4C4520434F4D4D414E4420341A
:1003A0003039360A004255494C443A2022302E3624
:1003B0002E3133362D3230332D6730643438646358
:1003C0002D646972747922202832333A31333A34F9
:1003D00033204E6F762020322032303138290A0007
:1003E0005649443A2030784645454428456C6C6966
:1003F0006F7420506F77656C6C29205049443A2007
:1004000030783430343028657034302920564552E5
:100410003A203078303030310A00444553433A2096
:10042000412073696D706C6520343025206B6579CF
:10043000626F6172640A000A092D20566572736941
:100440006F6E202D0A000A092D20436F6E736F6CAA
:1004500065202D0A4553432F713A09717569740A55
:10046000000A092D204D61676963202D0A443A096D
:100470004465627567204D65737361676520546FCD
:1004800067676C650A583A094D617472697820444F
:1004900065627567204D6F646520546F67676C6592
:1004A000202D2053686F77206B65797072657373A8
:1004B000657320696E206D61747269782067726956
:1004C000640A4B3A094B6579626F61726420446536
:1004D00062756720546F67676C65202D2053686FC5
:1004E00077206B65797072657373207265706F72B7
:1004F000740A4D3A094465627567204D6F757365DE
:1005000020546F67676C650A563A095665727369BD
:100510006F6E0A533A095374617475730A433A094A
:10052000416374697661746520436F6E736F6C65A7
:10053000204D6F64650A46312D4631303A095377B4
:100540006974636820746F204C6179657220302D66
:10055000392028463130203D204C30290A302D39B1
:100560003A0953776974636820746F204C61796528
:100570007220302D390A4553433A09537769746321
:100580006820746F204C6179657220302028616C7E
:100590007465726E617465206B65792031290A4734
:1005A000524156453A0953776974636820746F2045
:1005B0004C6179657220302028616C7465726E61BF
:1005C0007465206B65792032290A50415553453AAC
:1005D000094A756D7020746F20426F6F746C6F6183
:1005E00064657220285265736574290A003F000A09
:1005F0006D6F7573653A206F66660A000A6D6F75D8
:1006000073653A206F6E0A000A6B6579626F6172DA
:10061000643A206F66660A000A6B6579626F6172E0
:10062000643A206F6E0A000A6D61747269783A202C
:100630006F66660A000A6D61747269783A206F6E9F
:100640000A000A64656275673A206F66660A000AE6
:1006500064656275673A206F6E0A000A0A4A756D12
:1006600070696E6720746F20626F6F746C6F616465
:1006700065722E2E2E2000433E20005B735D004BE2
:100680006579626F6172642073746172742E0A00FE
:100690005B575D005B535D005B525D005B445D003A
:1006A0005B435D000403300000000A036500700036
:1006B0003400300000001C0345006C006C00690031
:1006C0006F007400200050006F00770065006C0020
:1006D0006C0000000403090409025B00030100A090
:1006E000FA090400000103010100092111010001C0
:1006F0002240000705810308000A090401000103E4
:1007000000000009211101000122360007058203C3
:1007100008000A0904020002030000000921110177
:1007200000012222000705830320000107050303BF
:100730002000011201100100000008EDFE40400100
:1007400000010203010631FF0974A10109751500BA
:1007500026FF009520750881020976150026FF0006
:10076000952075089102C005010980A10185021636
:1007700001002603001A81002A830075109501816B
:1007800000C0050C0901A1018503160100269C0289
:100790001A01002A9C02751095018100C00501090B
:1007A00006A101050719E029E7150025019508753F
:1007B0000181029501750881010508190129059536
:1007C000057501910295017503910105071900292D
:1007D000FF150026FF00950675088100C000112452
:1007E0001FBECFEFDAE0DEBFCDBF04B603FE27C0E9
:1007F0008091E8019091E901A091EA01B091EB01AB
:100800008730904BA740B04BD1F41092E801109282
:10081000E9011092EA011092EB0114BE84B7877FC0
:1008200084BF0FB6F894A89580916000886180938A
:100830006000109260000FBEE0E0F8E3099511E05F
:10084000A0E0B1E0E0EDF2E402C005900D92AC3220
:10085000B107D9F721E0ACE2B1E001C01D92A83E9A
:10086000B207E1F70E94A21B0C9466210C940000D1
:10087000FF93EF93E0912C01F0912D01309709F057
:100880000995EF91FF910895FC018591803011F059
:10089000EFDFFBCF0895FF27E0E230E247FF0CC017
:1008A000419597FF09C0EDE2609570958095909510
:1008B000611D711D811D911D27FF02C0219530E32F
:1008C00050E2AA27660F771F881F991FAA1FA41737
:1008D00010F0A41B63955A95A9F7AA3008F0A95FF8
:1008E000A05DAF93F395611571058105910541F701
:1008F000ED3211F4EF93F395F21718F43F93F3955B
:10090000FBCF8F91B5DFFA95E1F70895E991F99161
:100910008591803021F0853219F0AADFF9CF089552
:1009200020E0E89455915532C1F3503311F46894A6
:1009300055915A3348F4505390F3220F022E220F50
:10094000220F200D250FF4CF0EF421958991999156
:10095000533619F3533729F1533559F1BC01882720
:100960009927E8945C3621F489919991689455917E
:10097000543639F446EF7EF077FF0DC08FEF9FEFCE
:100980000AC055374AE039F0583540E121F0523677
:1009900042E009F00895FF93EF937DDFEF91FF911F
:1009A000B7CFFF93EF93FC0181918030B9F360DF03
:1009B000FBCFFF93EF9368DFF1CFDF93CF93CDB7FA
:1009C000DEB72596A3DFCF91DF9108950C9410092F
:1009D0000C9411090C94EE040C942905CF938E3DD0
:1009E0009C4539F5FB01C281CC23C9F0E09100019F
:1009F000F09101018081882311F08CE401C08AE22A
:100A00000E942E0CE0910001F091010181E09081A3
:100A1000911101C080E080932E01C0E00BC0809155
:100A20002E01882311F08CE401C08AE20E94E90CB7
:100A300001C0C1E08C2FCF91089581E008950E94FC
:100A40000416811102C00E9472160C94E6040C94E4
:100A5000E80408950C94EC0408950E94900F0E94FD
:100A60002C052FEF84E39CE0215080409040E1F77B
:100A700000C000000C94A217FF920F931F93CF9316
:100A8000DF938C01FC01C081D181809158018111DB
:100A900013C08281882349F0CE010E94C214F82E2F
:100AA000682FCE010E94671404C0CE010E949614E4
:100AB000F82EBE018F2D04C0CE010E94C214BE01CB
:100AC0000E94B306EC01B8010E94EA04882309F4ED
:100AD0003FC1C631FCE5DF0709F406C178F4C13037
:100AE000ECE5DE0759F120F4C115DC45F9F023C12E
:100AF000C531ECE5DE0708F440C01DC1C83DFCE58A
:100B0000DF0709F4D6C050F4C63DECE5DE0709F472
:100B100086C0C73DDC4509F4A5C00DC1CB3D8CE5C1
:100B2000D807D9F0CC3DDC45F9F005C1F801828148
:100B3000882309F40DC10E942D050AC1F8018281A4
:100B4000882309F405C18091C40181608093C401A8
:100B50008AE692E00E944404FBC0F8018281882367
:100B600009F4F6C080E006C0F8018281882309F408
:100B7000EFC082E00E944A1CEBC0F801828188230A
:100B800009F4DEC00E940416811102C00E94721690
:100B90000E94171690E09093DA018093D901FE012C
:100BA000E350FC45E231F10530F4EA5AFF4F809101
:100BB000D9010C941E218091D901816027C08260E7
:100BC00025C0846023C0806121C080621FC0806412
:100BD0001DC080681BC08460886018C08E7F16C0EE
:100BE0008D7F14C08B7F12C08F7E10C08F7D0EC092
:100BF0008F7B0CC08F770AC08B7F877F07C087FBF6
:100C0000222720F991E0922790FB87F98093D90160
:100C10008091D9010E941B160E94900F99C0F80183
:100C20008281882351F0109234010E943A179093E8
:100C300031018093300182E022C080913401811122
:100C40000FC080913001909131010E945217883C71
:100C5000910530F486E20E942E0C86E20E94E90C97
:100C600082E024C0F8018281882361F0109235016E
:100C70000E943A17909333018093320180E20E94E0
:100C8000150D66C08091350181110FC08091320130
:100C9000909133010E945217883C910530F487E20D
:100CA0000E942E0C87E20E94E90C80E20E941C0D3B
:100CB0004FC0F80182818111D9CF80913501811116
:100CC000F4CF80913201909133010E945217883CF9
:100CD000910558F780E20E941C0D88E20E942E0CBC
:100CE00088E20E94E90C34C00E949315282FF80175
:100CF00082814091000150910101882379F02A7A84
:100D000091E009F490E090932F01911102C069E203
:100D100001C065E3CA010E94A7160AC080912F0195
:100D2000811102C069E201C065E3CA010E94A916EF
:100D30000E9460150DC081E08093340180933501DD
:100D4000C801DF91CF911F910F91FF900C941D0569
:100D500080E0DF91CF911F910F91FF90089580E087
:100D600090E0089508959CE0799FF001112490E3AC
:100D7000899FE00DF11D1124E60FF11DEE0FFF1FFD
:100D8000E65BFE4F859194910895880F991FFC01B1
:100D9000E558FD4F859194910895CF93DF930E947C
:100DA000B3060E947008EC01811520E59207F0F56A
:100DB000811530E4930708F018C1883E910500F5CD
:100DC000803E910508F088C1883A910570F4853A13
:100DD000910508F09AC08130910509F47DC108F4AD
:100DE00034C1049708F078C130C18D3B910508F4F7
:100DF00097C0803C910508F428C1805C9109E7C048
:100E00008115904258F4C11581E0D80708F064C1FB
:100E1000C03FD10508F419C1D0655EC1C11590E38A
:100E2000D90708F0D8C0CE019F70D1C0811525E543
:100E3000920708F043C0811534E5930708F0ECC031
:100E4000811542E5940708F5C11581E5D80708F03A
:100E5000CFC02C2F237081E090E002C0880F991F33
:100E60002A95E2F79C689E0174E0369527957A955D
:100E7000E1F72370922BCF70C695C69530E2C39FE1
:100E8000E0011124C82BD92B27C1869586959E0198
:100E900023703327C115D34508F0AFC040E2849FCB
:100EA000C0011124C1E0D0E002C0CC0FDD1F2A95A3
:100EB000E2F78C2B9D2BEC01DC680EC1811529E536
:100EC000920778F4811538E5930708F0AAC08115D8
:100ED000964508F0BAC0CF71DD27DC2FCC27D06251
:100EE000FBC0C1158AE5D80708F4A0C0CE01905612
:100EF0008115904208F0A9C08D2F8F710E94ED08D6
:100F0000DD27D0628F71D82BE7C0853A910509F4AF
:100F10009FC0863A910509F09EC0C2E8D0E4DCC0CB
:100F2000883A910509F49AC0893A910509F499C063
:100F30008A3A910509F498C08B3A910509F497C053
:100F40008C3A910509F496C08B3B910509F495C044
:100F50008C3B910509F494C08D3A910509F493C036
:100F6000803B910509F492C08E3A910509F491C035
:100F70008F3A910509F490C0813B910509F48FC027
:100F8000823B910509F48EC0833B910509F48DC025
:100F9000843B910509F48CC0853B910509F48BC015
:100FA000863B910509F48AC0873B910509F489C005
:100FB000883B910509F488C0893B910509F487C0F5
:100FC0008A3B910509F486C0C0E0D4E485C00E9444
:100FD000C506EC0181C0CE019927D3FF03C0EC0107
:100FE000D86C7AC0EC01D06C77C0DF70D06A74C066
:100FF000DC2FCC27C16FD06A6FC040E2849FC00154
:101000001124C1E0D0E002C0CC0FDD1F2A95E2F729
:10101000C82BD92BDA6860C0D82FCC27C46FD06A10
:101020005BC0D82FCC27C06FD06A56C08C2F8F7072
:10103000806E90E0906A24E0D695C7952A95E1F7F6
:10104000CF709C013C2BE90147C0C0E0D0E044C018
:10105000C1E8D0E441C0C3E8D0E43EC0C2EED4E46D
:101060003BC0C9EED4E438C0CAEED4E435C0C5EB09
:10107000D4E432C0C6EBD4E42FC0C3EBD4E42CC01C
:10108000C4EBD4E429C0C7EBD4E426C0CCECD4E450
:1010900023C0CDECD4E420C0C3E8D5E41DC0CAE829
:1010A000D5E41AC0C2E9D5E417C0C4E9D5E414C038
:1010B000C1E2D6E411C0C3E2D6E40EC0C4E2D6E475
:1010C0000BC0C5E2D6E408C0C6E2D6E405C0C7E25C
:1010D000D6E402C0CAE2D6E4CE01DF91CF910895F2
:1010E0008238910549F1B0F48133910509F458C073
:1010F00048F48932910509F44EC08A32910509F409
:1011000054C008958533910509F440C08933910591
:1011100099F00895833E910529F138F4803E9105B8
:1011200091F0823E9105A1F00895863E9105F9F077
:10113000873E910531F108952091D90120FD3AC0F3
:1011400021FD38C008958091D90180FD35C032C09D
:101150008091D90182FF32C08091D90184FD30C0D5
:1011600083EE39C08091D90182FD28C0F5CF8091EE
:10117000D90183FF27C08091D90184FD21C087EE6A
:101180002AC08091D90183FD1DC0F5CF8091D9017E
:1011900085FD1AC01BC08091D90185FD17C014C000
:1011A0008091D90186FD14C015C08091D90186FDBA
:1011B00011C00EC080EE0FC089E30DC082EE0BC0DF
:1011C00080E009C086EE07C089E205C085E303C060
:1011D0008AE201C081E390E008959091D90192FFE5
:1011E0000DC0282F2871283019F4877F846006C02D
:1011F000282F2471243011F48B7F886093FF0DC059
:10120000282F2871283119F4877E846106C0282F81
:101210002471243111F48B7E886194FD877E0895BA
:1012200008950895E9E1F1E041E050E024E02E0F57
:101230009191A92FA295AF70B0E091963C919197B2
:101240009F70BA0102C0660F771F9A95E2F7CB0133
:101250008095832391968C932E13EACFADE0B1E075
:1012600041E050E02CE02A0F8D91E82FE295EF70DD
:10127000F0E031A18F70BA0102C0660F771F8A9526
:10128000E2F7CB01962F9095932391A392A1892BFE
:1012900082A32A13E9CF10923F0110923E011092CF
:1012A00037011092360110924101109240011092C4
:1012B00039011092380110924301109242011092AC
:1012C0003B0110923A011092450110924401109294
:1012D0003D0110923C010C941F054F925F927F924A
:1012E0008F929F92AF92BF92CF92DF92EF92FF9236
:1012F0000F931F93CF93DF9329E1E22E21E0F22E8B
:10130000C6E3D1E001E010E0992493946E01A88037
:10131000B98019821882D7018D917D01E82FE2955D
:10132000EF70F0E021A18F70A80102C0440F551F9B
:101330008A95E2F7CA01242B21A322A1842E80944E
:10134000282122A350EA5A95F1F79DE0492E91E019
:10135000592E20E030E0D2017D912D01472F42959A
:101360004F7050E0DA0190967C90488159817F70EF
:10137000D80102C0AA0FBB1F7A95E2F7BD01672111
:1013800041F4B801022E02C0660F771F0A94E2F7FB
:1013900002C060E070E0462B572B598348832F5FD3
:1013A0003F4F2C303105B9F691A1892281A292A13B
:1013B000892B82A32296F60180819181A816B90615
:1013C00041F0909246010E943A1790934801809311
:1013D0004701F1E0CE33DF0709F098CF8091460155
:1013E000882351F180914701909148010E94521742
:1013F000069710F1809136019091370190933F014B
:1014000080933E0180913801909139019093410180
:101410008093400180913A0190913B019093430168
:101420008093420180913C0190913D019093450150
:1014300080934401109246010E94270581E0DF91CC
:10144000CF911F910F91FF90EF90DF90CF90BF90C1
:10145000AF909F908F907F905F904F900895E82F6E
:10146000F0E0EE0FFF1FE25CFE4F80819181089556
:10147000CF92DF92EF92FF920F931F93CF93DF9360
:101480008BE892E00E9444048EE3E82E81E0F82E7F
:10149000C0E0D0E096E8C92E92E0D92E0DE712E028
:1014A000DF93CF93DF92CF920E94DD0483E892E036
:1014B0000E944404F701819191917F010E94EA15F5
:1014C0009F938F931F930F930E94DD048BE792E00D
:1014D0000E94440421968DB79EB708960FB6F894E3
:1014E0009EBF0FBE8DBFC430D105D1F6DF91CF9125
:1014F0001F910F91FF90EF90DF90CF900895909300
:101500004E0180934D010895E0914D01F0914E01FF
:10151000309721F00190F081E02D099480E008954A
:10152000EF92FF920F931F93CF93DF93E0914D01C2
:10153000F0914E013097B1F18C010280F381E02DE2
:1015400009958091C40182FF2DC080FF04C08AEA02
:1015500092E00E944404E80118E084EAE82E82E068
:10156000F82E8091C40180FF0BC088811F928F9359
:10157000FF92EF920E94DD040F900F900F900F905A
:10158000115021961111EDCF8091C40180FF0AC046
:1015900082EA92E0DF91CF911F910F91FF90EF903F
:1015A0000C944404DF91CF911F910F91FF90EF9025
:1015B000089520914B0130914C018217930771F0EF
:1015C00090934C0180934B01E0914D01F0914E01BD
:1015D000309721F00680F781E02D0994089520913D
:1015E000490130914A018217930771F090934A01A3
:1015F00080934901E0914D01F0914E01309721F027
:101600000084F185E02D0994089508950C94050B4C
:1016100081E008950E94311785B7806885BF85B73E
:10162000806885BF0E9412090C94C617CF93C82FFB
:101630008091C40182FF1EC080FF04C083EC92E051
:101640000E9444048091C40180FF0CC01F92CF937C
:101650008EEB92E09F938F930E94DD040F900F908A
:101660000F900F908091C40180FF04C08CEB92E03A
:101670000E9444048C2FCF910C942A054F925F92C4
:101680007F928F929F92AF92BF92CF92DF92EF9212
:10169000FF920F931F93CF93DF93CDB7DEB72A97B7
:1016A0000FB6F894DEBF0FBECDBF0E946D090E9439
:1016B000080B811111C08FEF89838A831B820E94DE
:1016C0003A178160782F9D838C8349815A816B8181
:1016D0008D810E94FA0B57C090E5C92E91E0D92E5A
:1016E00000E010E0AA24A394B12C702E802F0E9459
:1016F0002F0A4C01F601419051906F01482659265E
:101700004114510431F40F5F1F4F0430110569F784
:10171000D2CF8091C40181FD0E94380A20E030E0E0
:101720007501022E02C0EE0CFF1C0A94E2F7C701FD
:1017300084219521892B09F12E837F828E209F2081
:1017400091E0892809F490E098870E943A17816017
:10175000782F9A8789874E815F8168858A850E9464
:10176000FA0B000F111FF801E05BFE4F80819181A1
:10177000E826F926F182E08206C02F5F3F4F2C3029
:10178000310571F6C0CF10914F010E94840A1817DD
:10179000D9F00E94840A80934F012A960FB6F894DC
:1017A000DEBF0FBECDBFDF91CF911F910F91FF9094
:1017B000EF90DF90CF90BF90AF909F908F907F90F1
:1017C0005F904F900C94160B2A960FB6F894DEBFDC
:1017D0000FBECDBFDF91CF911F910F91FF90EF9082
:1017E000DF90CF90BF90AF909F908F907F905F9051
:1017F0004F900895CF93DF93CDB7DEB72B970FB6F9
:10180000F894DEBF0FBECDBF4F83588769877A87B4
:101810008B87DE01119686E0FD0111928A95E9F72A
:1018200085E0FE01379601900D928A95E1F7498196
:101830005A816B817C818D819E810E9437122B960B
:101840000FB6F894DEBF0FBECDBFDF91CF910895E4
:10185000FC01808191810E9401150895CF93DF934F
:101860001F92CDB7DEB7882309F4AFC0682F8CEF85
:10187000860F813A70F4862F69830E94221969814C
:101880008111A3C080910001909101010E94A716CF
:101890000CC080E2860F883068F4677081E001C078
:1018A000880F6A95EAF70E9496150F90DF91CF9105
:1018B0000C9460158BE5860F833088F4653A29F027
:1018C000663A31F083E890E005C081E890E002C01C
:1018D00082E890E00F90DF91CF910C94D90A88E5CF
:1018E000860F853108F071C0683A61F1693A69F193
:1018F0006A3A71F16B3A79F16C3A81F16B3B89F19B
:101900006C3B91F16D3A99F1603BA1F16E3AA9F10E
:101910006F3AB1F1613BB9F1623BC1F1633BC9F18F
:10192000643BD1F1653BD9F1663BE1F1673BE9F1FD
:10193000683BF1F1693BF9F16A3B09F43FC080E093
:1019400090E03EC082EE90E03BC089EE90E038C06F
:101950008AEE90E035C085EB90E032C086EB90E0F7
:101960002FC083EB90E02CC084EB90E029C087EB84
:1019700090E026C08CEC90E023C08DEC90E020C07D
:1019800083E891E01DC08AE891E01AC082E991E005
:1019900017C084E991E014C081E292E011C083E2B3
:1019A00092E00EC084E292E00BC085E292E008C0B3
:1019B00086E292E005C087E292E002C08AE292E00D
:1019C0000F90DF91CF910C94EF0A0F90DF91CF91A0
:1019D0000895882349F1682F8CEF860F813A38F4F7
:1019E00080910001909101010E94A9160CC080E233
:1019F000860F883050F4677081E001C0880F6A95C7
:101A0000EAF70E949C150C9460158BE5860F8330D5
:101A100020F480E090E00C94D90A685A653120F4F3
:101A200080E090E00C94EF0A0895882321F00E9452
:101A300096150C9460150895882321F00E949C153A
:101A40000C94601508954F925F926F927F92BF92AF
:101A5000CF92DF92EF92FF920F931F93CF93DF937A
:101A60007C01D62FC72FFC01058102950F701281D2
:101A700011110E94B3150E945915882379F0112382
:101A800069F080E28D0F883048F082E00E944215B4
:101A90000E94591591E0B82EB92601C0B12CCC2E68
:101AA000C2948FE0C822D12CF601E859FF4F0C9464
:101AB0001E218C2F807FCF70882311F0C295C07FAC
:101AC000112399F0CC2309F48DC180E28D0F883069
:101AD00010F0D11104C08C2F0E94961503C08C2FDA
:101AE0000E94A6150E9460157DC18D2F0E94E90CF1
:101AF000CC2309F49CC180E28D0F883010F0D11105
:101B000004C08C2F0E949C1503C08C2F0E94AC1522
:101B10000E9460158CC18C2F807FCF70803211F0B5
:101B2000C295C07FDD2319F0D130C9F022C0112346
:101B300071F0002341F0013031F40E94CC158C2B60
:101B40000E94C61574C10E94CC158C2B04C10023C1
:101B500019F0013009F46BC10E94C91518C0112396
:101B600021F0063008F063C10EC0053008F05FC1F7
:101B70000EC0112351F0002331F0F701858180FF61
:101B800031C18F7085838C2FE6C001113CC18C2F31
:101B9000E8C08C2F86958695837090E0009719F0A9
:101BA000019761F044C1112321F08D2F9C2F937078
:101BB00002C080E090E00E94D90A49C1112321F0BF
:101BC0008D2F9C2F937002C080E090E00E94EF0A5E
:101BD0003EC18C2F837009F050C0111134C18D2F7C
:101BE000829586958770880F880F9D2F9F70492E4C
:101BF000512C612C712C082E04C0440C551C661C01
:101C0000771C0A94D2F7D4FF14C00FE010E020E054
:101C100030E0B901A80104C0440F551F661F771FAB
:101C20008A95D2F7CB01BA01609570958095909511
:101C300003C060E070E0CB01C695C695C370D0E0EC
:101C4000C230D10561F0C330D10581F06429752916
:101C500086299729219771F00E947C13F4C064298A
:101C60007529862997290E948E13EDC00E947C1346
:101C7000C301B2010E946A13E6C0112319F08C2F30
:101C8000817001C08695882309F4DDC08D2F82956F
:101C900086958770880F880F9D2F9F70492E512C35
:101CA000612C712C082E04C0440C551C661C771C3A
:101CB0000A94D2F7D4FF14C00FE010E020E030E027
:101CC000B901A80104C0440F551F661F771F8A95EC
:101CD000D2F7CB01BA01609570958095909503C0BD
:101CE00060E070E0CB01C695C695C3704C2F50E004
:101CF0004230510569F04330510589F06429752956
:101D0000862997294130510571F00E9442149BC0E9
:101D100064297529862997290E94541494C00E9429
:101D20004214C301B2010E9430148DC08D2F90E087
:101D3000FC01E05EF109E531F10508F04FC0E8581B
:101D4000FF4F0C941E21DF708C2F8F71112331F007
:101D50000E94C9138D2F0E94150D69C00E94EA13BD
:101D60008D2F0E941C0D63C0112341F0053008F037
:101D70005EC08C2F8F710E940F1459C0063008F07E
:101D800056C0F7CF112339F08C2F8F710E94C913E1
:101D90004EC01123C9F38C2F8F710E94EA1347C0E4
:101DA000112329F08C2F8F710E94B41340C00E9420
:101DB000AF133DC0112349F0CF718C2F0E94C9137E
:101DC00063E08C2F0E94391532C081E00E944215D9
:101DD000023068F182E00E94421529C0112331F0DF
:101DE000002391F28D2F0E942E0C21C0002399F226
:101DF000D93349F45FEF67EE73E0515060407040B3
:101E0000E1F700C000008D2F0E94E90C10C04C2F9C
:101E10004F706D2FC7010E94AF060E94DB1217C0E2
:101E20004C2F4F706D2FC7010E94B20610C088E082
:101E3000C816D10441F05CF0EAE0CE1AD108F2E015
:101E4000CF16D10420F40E94840A0E942A05BB20E8
:101E5000F1F00E94351580FD1AC0F70112820E9430
:101E60002F150E94C913C7010E94550F0E942F15FC
:101E7000DF91CF911F910F91FF90EF90DF90CF9066
:101E8000BF907F906F905F904F900C94EA13DF911A
:101E9000CF911F910F91FF90EF90DF90CF90BF9067
:101EA0007F906F905F904F9008950F931F93CF9303
:101EB000DF93EC01888199812B813C81232BB9F040
:101EC0009F3F11F48F3F99F0CE010E943C0588237B
:101ED00071F0688179818A810E940C158C010E94C1
:101EE00066140E946713B801CE010E94230DDF9192
:101EF000CF911F910F9108950E94B3150E94C315B1
:101F000080910001909101010E94AB160E94601522
:101F100080E090E00E94D90A80E090E00C94EF0A03
:101F20000E94A3150C947C0F0E940115E92FE295E5
:101F3000EF70F0E03297EE30F105B0F4E357FF4F69
:101F40000C941E21803F91F018F4803E68F40EC07E
:101F5000843F51F40BC0803E48F0813F29F406C015
:101F600093FB882780F9089580E0089581E0089523
:101F7000CF93DF9300D000D01F92CDB7DEB70F9084
:101F80000F900F900F900F90DF91CF910895CF9306
:101F9000DF9300D000D000D0CDB7DEB726960FB6C5
:101FA000F894DEBF0FBECDBFDF91CF9108951F9390
:101FB000CF93DF93C091590116E080915A01C81761
:101FC00099F0D0E01C9FF0011D9FF00D1124E55AFF
:101FD000FE4F4081518162817381848195810E948D
:101FE000C70F2196C770E9CFDF91CF911F91089558
:101FF00040918B0150918C0160918D0170918E0107
:1020000080918F01909190010C94C70F8091900165
:1020100082958F7009F054C080918D01882309F456
:102020004FC080915901A0915A0160918B0170912C
:102030008C0140918E0150918F01B6E08A1709F40E
:102040003FC090E041155105C1F17F3F11F46F3F52
:10205000A1F1B89FF001B99FF00D1124E55AFE4F90
:10206000218172132AC02081621327C0228121118D
:1020700024C0238134812417350710F421503109FD
:10208000241B350B283C3105C0F4209190012F70A2
:1020900020612093900126E0289FF001299FF00DF8
:1020A0001124E05AFE4F80818F70806180838BE81D
:1020B00091E00E94550F0C94D70F01968770BECF08
:1020C0000895CF92DF92EF92FF920F931F93CF93D9
:1020D000DF93CDB7DEB762970FB6F894DEBF0FBEC1
:1020E000CDBF8C0185E0F801DE011D9601900D92B7
:1020F0008A95E1F7D8014C9111965C91119712964F
:102100006C9112971396CD90DC90149730918B01BF
:1021100070918C0180918E0190918F01009709F44C
:102120006BC17F3F19F43F3F09F466C1E0908D0118
:10213000EE2009F4C0C020919001C816D90628F0FD
:10214000F601E81BF90BCF0104C0809590958C0D2A
:102150009D1DFF24F394883C910578F0F12C207F9D
:1021600009F0C6C07C2DD98AC88A89890E94B80F17
:102170008BE891E00E94550FB1C0822F807F09F05B
:1021800046C0751314C0341312C0611110C02F70F3
:102190002061209390010E94F80F8BE891E00E944B
:1021A000550F80919001D80115968C932EC0CD28A3
:1021B00019F15F3F11F44F3FF9F0F62E61111CC089
:1021C0008091590120915A0136E0821709F45AC0D2
:1021D00090E0389FF001399FF00D1124E55AFE4F31
:1021E0007181571306C07081471303C0728171114A
:1021F00003C001968770E9CFF62E662309F427C144
:1022000080919001816080939001F12C20C1751321
:1022100008C0341306C0611104C080919001D80138
:10222000C3C04D875E878D859E856A8B0E94940F03
:102230006A898823E1F16623D1F120919001822FF0
:1022400082958F7090E0029774F080918B0190914D
:102250008C0198878F831986DB86CA862C87CE01EE
:1022600007960E94550F86E0F801ABE8B1E00190B7
:102270000D928A95E1F70E9406100E94F80FFF2444
:10228000F394E5C04D875E878D859E850E9401157C
:10229000292F22952F7030E0223031050CF0CBC071
:1022A0009F7009F0C5C0805E883008F4D0C0C801B6
:1022B0000E94550FE4CFC816D90608F453C0F601A2
:1022C000E81BF90BCF01883C910508F450C0F12CB4
:1022D0007C2DD98AC88A89890E94B80FEBE8F1E081
:1022E00086E0DF011D928A95E9F70E94F80FAFC0E2
:1022F000751314C0341312C0611110C08091900185
:10230000F8018583C8010E94550F86E0EBE8F1E0F3
:10231000DF011D928A95E9F7FE2C99C04D875E87F3
:102320008D859E856A8B0E94940F6A89882309F4A3
:10233000BECF662309F4BBCF20919001822F8295F6
:102340008F7090E002970CF48ECF80918B0190916A
:102350008C019A8389831B82DD82CC822E83CE01FD
:1023600001967FCF809590958C0D9D1DACCFF62E5C
:10237000662309F49CCF75132EC034132CC0209112
:10238000900120FD1FC0822F82958F70D9F0D80157
:1023900015962C9315978F3049F08F5F982F929553
:1023A000907F822F8F70892B15968C93C8010E9485
:1023B000550F86E0F801ABE8B1E001900D928A95E7
:1023C000E1F793CF86E0F801ABE8B1E001900D9220
:1023D0008A95E1F73CC04D875E878D859E850E947A
:1023E000940F811140CF8091900181608093900182
:1023F000C8010E94550F2BC0662309F458CF4D87A2
:102400005E878D859E850E94940FF82E882309F49F
:102410004ECF86E0F801ABE8B1E001900D928A95CD
:10242000E1F78BE891E00E94280C0E9406105DCF36
:10243000811139CF0CC0243031050CF038CF9F709A
:1024400009F431CFF8019581907F09F02CCF8F2DC1
:1024500062960FB6F894DEBF0FBECDBFDF91CF916D
:102460001F910F91FF90EF90DF90CF9008951F93F1
:10247000CF93DF93CDB7DEB72C970FB6F894DEBFBE
:102480000FBECDBF4F83588769877A878B879C871C
:10249000CE0107960E946110882369F08F8198858C
:1024A0002A853B85232BF1F19F3F09F063C08F3FC5
:1024B00009F060C037C086E0FE013796DE01119654
:1024C00001900D928A95E1F76F817885EA85FB8509
:1024D000309741F17F3F11F46F3F21F120915A0174
:1024E00030E0C9010196877099274091590150E069
:1024F0008417950709F447C069837A83FD83EC83C9
:1025000096E0929FD001939FB00D1124A55ABE4F23
:10251000FE01319601900D929A95E1F780935A0150
:102520000E94D70F16E08091590190915A018917A6
:10253000C1F1189FC0011124855A9E4F0E9461105D
:10254000882379F1E09159011E9FF0011124E55A89
:10255000FE4F4081518162817381848195810E9407
:10256000C70F8091590190E0019687709927809359
:102570005901D9CF4F81588569857A858B859C858E
:102580000E94C70FCFCF0E94900F10925A01109255
:102590005901EBE8F1E086E0DF011D928A95E9F749
:1025A000C1CF2C960FB6F894DEBF0FBECDBFDF9122
:1025B000CF911F910895EF92FF920F931F93CF93A6
:1025C000DF938C01892B09F46CC0F12CEE24E39489
:1025D000E8012196F8018491843740F4843008F0B2
:1025E00051C0813081F0823019F15BC0853709F428
:1025F00044C0A8F19CE7980F903708F052C08F773D
:102600000E94E90C41C00E5F1F4FFE01C49180E2A1
:102610008C0F883048F4C7708E2D01C0880FCA9582
:10262000EAF70E94B61514C08C2F0E942E0C2DC004
:102630000E5F1F4FFE01C49180E28C0F883058F46A
:10264000C7708E2D01C0880FCA95EAF70E94BC158D
:102650000E9460151AC08C2F0E94E90C16C00E5FF4
:102660001F4FFE01C491CC2381F08FE99FE00197B9
:10267000F1F700C00000C150F6CF0E5F1F4FFE0102
:10268000F49003C00E942E0C8E018F2D882309F434
:102690009FCFEFE9FFE03197F1F700C000008150D4
:1026A000F5CFDF91CF911F910F91FF90EF9008959B
:1026B00008950C9458130E9459136093B3017093BA
:1026C000B4018093B5019093B6010C947C0F0895EA
:1026D0000C945B130F931F930091B3011091B401FD
:1026E0002091B5013091B601602B712B822B932B79
:1026F0001F910F910C945B130F931F930091B301E3
:102700001091B4012091B5013091B601602371237D
:10271000822393231F910F910C945B130F931F93AC
:102720000091B3011091B4012091B5013091B6012F
:1027300060277127822793271F910F910C945B13B9
:1027400008950C94A0130E94A1136093AF0170939D
:10275000B0018093B1019093B2010C947C0F60E0C2
:1027600070E0CB010C94A3130F931F9341E050E052
:1027700060E070E08A019B0104C0000F111F221F5E
:10278000331F8A95D2F7C901B8011F910F910C949C
:10279000A3130F931F9341E050E060E070E004C08A
:1027A000440F551F661F771F8A95D2F78091AF019E
:1027B0009091B001A091B101B091B2018A019B0149
:1027C000082B192B2A2B3B2BC901B8011F910F9104
:1027D0000C94A3130F931F9341E050E060E070E06E
:1027E00004C0440F551F661F771F8A95D2F7409586
:1027F0005095609570958091AF019091B001A09136
:10280000B101B091B2018A019B01082319232A2347
:102810003B23C901B8011F910F910C94A3130F938F
:102820001F9341E050E060E070E004C0440F551F8A
:10283000661F771F8A95D2F78091AF019091B00102
:10284000A091B101B091B2018A019B01082719271B
:102850002A273B27C901B8011F910F910C94A3139C
:102860000F931F930091AF011091B0012091B1011E
:102870003091B201602B712B822B932B1F910F9102
:102880000C94A3130F931F930091AF011091B0010B
:102890002091B1013091B2016023712382239323EF
:1028A0001F910F910C94A3130F931F930091AF01ED
:1028B0001091B0012091B1013091B20160277127D0
:1028C000822793271F910F910C94A31308952CE056
:1028D000929F800D1124A82FA695A695A695877086
:1028E00051E001C0550F8A95EAF785E0A89FD00115
:1028F000112420E030E070E0F901EA0FFB1FEF56F1
:10290000FE4F4081CB01022E02C0969587950A9416
:10291000E2F7817099278195842785238427808316
:102920002F5F3F4F2530310539F708952CE0929FF6
:10293000800D1124682F669566956695982F97707F
:1029400085E0689FB001112440E050E080E0FA018A
:10295000E60FF71FEF56FE4F208130E0092E02C030
:10296000369527950A94E2F721703327042E01C08B
:10297000220F0A94EAF7822B4F5F5F4F45305105D3
:1029800031F70895CF92DF92EF92FF920F931F934A
:10299000CF93DF938C01C090B301D090B401E0904D
:1029A000B501F090B6018091AF019091B001A09176
:1029B000B101B091B201C82AD92AEA2AFB2ACFE193
:1029C000D0E0D701C6010C2E04C0B695A795979507
:1029D00087950A94D2F780FF06C0B8018C2F0E9419
:1029E000CD06019721F4219760F780E001C08C2F7C
:1029F000DF91CF911F910F91FF90EF90DF90CF90DB
:102A00000895CF93DF93EC010E94C214BE010E948F
:102A1000CD06DF91CF9108951F93CF93DF93EB0104
:102A200090915801992321F0CB010E94011513C008
:102A3000882349F0CB010E94C214182F682FCE01C1
:102A40000E94671404C0CB010E949614182FBE0187
:102A5000812F0E94CD06DF91CF911F910895809123
:102A6000B70185958595859508958091B701877003
:102A7000089598E0899F90011124262B2093B70197
:102A80000C94C9132091B701809582238093B701DC
:102A9000982F977069F430E0482F082E000C550BE2
:102AA0002417350729F08595859585950C94EA13AB
:102AB00008959091B701977081E009F480E008953E
:102AC000E0910001F09101018091C3018083E091C8
:102AD0000001F091010190818091C201892B8083D6
:102AE000E0910001F091010190818091C101892B59
:102AF00080838091B801882381F0E0910001F091FA
:102B000001019081892B80838091000190910101C6
:102B10000E94741681111092B80180910001909169
:102B200001010C94900A8091C30108959091C30112
:102B3000892B8093C301089580959091C3018923C7
:102B40008093C30108951092C30108959091C2012A
:102B5000892B8093C201089580959091C2018923A9
:102B60008093C20108951092C20108959091C1010D
:102B7000892B8093C101089580959091C10189238B
:102B80008093C10108951092C10108958093B80106
:102B900008951092B80108958091B8010895909316
:102BA0002D0180932C0108958295982F9C7C392FBC
:102BB00036953695282F237344E0249FC0011124B5
:102BC000932F982B292F2A7A2695892F8575880F80
:102BD000822B08951F93CF93DF931F92CDB7DEB75B
:102BE00099830E94D415182F9981892F0E94D4159A
:102BF000212F30E0322F2227A901482BCA010F9044
:102C0000DF91CF911F91089580E090E00E942C21E8
:102C100021E08D3E9E4F09F020E0822F089582E052
:102C200090E00C94242183E090E00C94242184E033
:102C300090E00C942421682F84E090E00C943221E1
:102C4000AB01BC018FE090E00C944421AB01BC01CE
:102C500083E190E00C94442160E070E0CB010C949F
:102C6000261660E070E0CB010E9420160C942C1612
:102C70006DEE7EEF80E090E00E94502160E082E007
:102C800090E00E94322160E083E090E00E943221D7
:102C90001092B3011092B4011092B5011092B601D6
:102CA00060E084E090E00E94322160E085E090E006
:102CB0000E94322160E086E090E00E9432216FEFB6
:102CC00087E090E00E94322140E050E0BA0188E0C5
:102CD00090E00E94442160E08DE090E00E9432216B
:102CE0000C9431160C943816FC0131969C01285F27
:102CF0003F4F80E0919191118F5FE217F307D1F779
:102D000008959C01FC0132969FEF80E041914617A7
:102D100089F09F3F19F4411101C0982F8F5F8630D1
:102D2000A9F79F3F39F0F901E90FF11D97FDFA95D9
:102D3000628308950895FC01329608962081261337
:102D400001C010823196E817F907C1F708950C9475
:102D500081160C949B16FC01319608961192E81787
:102D6000F907E1F7089508950C94B3160E94B4167C
:102D70008091DF01843049F11092C50120E488E19F
:102D800090E00FB6F894A895809360000FBE209352
:102D9000600080E00E942A050E94B41683B7817FFC
:102DA000846083BF83B7816083BF7894889583B73D
:102DB0008E7F83BF0FB6F894A895809160008861DC
:102DC00080936000109260000FBE089508950895EA
:102DD000CF930E94E6160E946D090E94E716C0E09C
:102DE0008C2F0E942F0A892B29F4CF5FC430C1F7A2
:102DF00080E001C081E0CF91089508950C94FD1604
:102E00000E94900F0E94840A0E942A050C94FE16CC
:102E10001F920F920FB60F9211248F939F93AF932F
:102E2000BF938091C501811113C08091D50190910C
:102E3000D601A091D701B091D8014196A11DB11D35
:102E40008093D5019093D601A093D701B093D80178
:102E5000BF91AF919F918F910F900FBE0F901F90D8
:102E6000189582E084BD93E095BD9AEF97BD80935D
:102E70006E0008952FB7F8948091D5019091D601F6
:102E8000A091D701B091D8012FBF08952FB7F89422
:102E90006091D5017091D6018091D7019091D801B0
:102EA0002FBF0895CF92DF92EF92FF920F931F935F
:102EB0002FB7F8944091D5015091D6016091D70178
:102EC0007091D8012FBF6A017B01EE24FF248C0191
:102ED00020E030E0C016D106E206F30610F44150BF
:102EE00051099A01281B390BC9011F910F91FF90BD
:102EF000EF90DF90CF90089578941F920F920FB6C5
:102F00000F9211248F939F93AF93BF938091D5011C
:102F10009091D601A091D701B091D8010196A11D41
:102F2000B11D8093D5019093D601A093D701B093A2
:102F3000D801BF91AF919F918F910F900FBE0F90CD
:102F40001F90189581E08093E00080E28093D80084
:102F50001092C9008FE19EE40197F1F700C00000D4
:102F600087E090EBDC018093E8019093E901A09366
:102F7000EA01B093EB019CE088E10FB6F894A895C4
:102F8000809360000FBE90936000FFCF0E940416F4
:102F9000811102C00E9472160E940F168093C40114
:102FA0000E94171690E09093DA018093D9010E9455
:102FB0001316682F70E080E090E00C946813CF93B4
:102FC000C82F1F928F938CED92E09F938F930E9456
:102FD000DD0481E090E0A0E0B0E0BC01CD0104C0E0
:102FE000660F771F881F991FCA95D2F70E94681332
:102FF0000F900F900F900F90CF910C94900FCF9354
:10300000873288F58E3108F00BC18E3009F489C003
:10301000D8F4873009F461C08B3009F44FC0863092
:1030200009F004C18091C401817F8E7F8093C40127
:1030300086E494E00E94440487E796E00E944404FA
:1030400081E08093C60147C0863109F4B2C020F404
:10305000803109F47CC0EAC0893109F493C08B3116
:1030600009F44BC0E3C0883349F150F4893209F4C4
:10307000D9C0853309F4D6C0873209F4D3C0D6C08D
:10308000833409F4CFC028F48A3308F4CFC08953BD
:10309000CAC0883409F0CAC00E94900F8BE596E040
:1030A0000E9444042FEF83ED90E321508040904034
:1030B000E1F700C000000E94A2170DC081E694E075
:1030C00043C082E496E00E9444048091C401897F59
:1030D000877F8093C401C1E0AEC08091C401C82F36
:1030E000C095C170C0FB80F98093C401CC2349F323
:1030F0008FE496E00E9444049EC09091C40191FB2D
:10310000CC27C0F981E0C827892FC0FB81F98093C3
:10311000C401CC2319F085E396E029C087E296E04C
:1031200013C09091C40192FBCC27C0F981E0C8275D
:10313000892FC0FB82F98093C401CC2319F088E168
:1031400096E015C088E096E00E944404C4CF9091B8
:10315000C40193FBCC27C0F981E0C827892FC0FBAD
:1031600083F98093C401CC2351F08CEF95E00E9449
:1031700044048091C40181608093C4015CC08FEEDF
:1031800095E0E2CF87E394E00E9444048AE194E072
:103190000E94440480EE93E00E94440485EA93E098
:1031A0000E94440488E793E00E9444048AE493E088
:1031B000CBCF8CE393E00E9444040E94840A1F92C8
:1031C0008F9382E293E09F938F930E94DD0480911E
:1031D0000C011F928F938BE093E09F938F930E943B
:1031E000DD048091D3011F928F9388EF92E09F932B
:1031F0008F930E94DD040E9446179F938F937F93C5
:103200006F9381EE92E09F938F930E94DD048DB7C0
:103210009EB742960FB6F8949EBF0FBE8DBF5BCF90
:103220008D5101C080E00E94DF1755CF8DEE95E0F3
:103230000E944404C0E08C2FCF91089580E008954F
:1032400080E00895CF93C82F8091C601882319F09C
:10325000813049F03EC0E0910001F0910101808190
:103260008232C9F507C0E0910001F091010180812F
:10327000823261F48C2F0E941E19811104C08C2FA0
:103280000E94FF1724C081E090E021C08C2F0E9493
:10329000201981111BC0C43189F018F4CB3029F0FA
:1032A00010C0C93259F0C83361F486E494E00E943A
:1032B000440488ED92E00E94440408C01092C601C4
:1032C0000CC086ED92E00E94440407C081E081704A
:1032D00006C01092C60180E002C080E0F8CFCF9116
:1032E00008958091D201089508959FB7F89410929F
:1032F000C9019FBF9091DF01943009F057C09091B0
:10330000E9009F703091EC00232F217030FD20E800
:10331000922B23E02093E9002091EB0020FF43C093
:103320002091EE0027FF3FC02091C701222321F00A
:103330002091E80025FF37C01092C70126E03091A8
:10334000E80035FD15C03091DF01343061F5309172
:10335000EB0035FD28C0215021F481E08093C701A6
:1033600022C0EFE9FFE03197F1F700C00000E7CF9E
:103370008093F1008091E80085FD0AC08091E8000B
:1033800080FFFCCF8091E8008E778093E80006C034
:103390008FB7F89421E02093C9018FBF9F7090935D
:1033A000E90080E008959F709093E9008FEF089501
:1033B0000F931F93CF93DF9300D01F92CDB7DEB74B
:1033C0008C010E945A1C823011F0843021F583E078
:1033D00089831B830A8382E08093E9008FEF9091B9
:1033E000E800815095FD06C095ED9A95F1F7000033
:1033F0008111F5CF8091E80085FF0DC040E050E0DD
:1034000063E070E0CE0101960E94771C8091E80095
:103410008E778093E8000F900F900F90DF91CF91FF
:103420001F910F910895CF93DF9300D01F92CDB7D6
:10343000DEB72091DF01243029F522E0298380586E
:1034400091099B838A832093E9008FEF9091E80094
:10345000815095FD06C095ED9A95F1F70000811118
:10346000F5CF8091E80085FF0DC040E050E063E0BB
:1034700070E0CE0101960E94771C8091E8008E7763
:103480008093E8000F900F900F90DF91CF910895F7
:10349000CF93DF93EC010E945A1C823011F08430EC
:1034A00039F581E08093E9009FEF8091E800915029
:1034B00085FD06C085ED8A95F1F700009111F5CFE5
:1034C0008091E80085FF14C040E050E068E070E0C3
:1034D000CE010E94771C9091E8009E779093E800BF
:1034E00098E0FE01AAECB1E001900D929A95E1F707
:1034F000DF91CF91089580EA96E00E944404809184
:10350000DE01811109C00E940C1E0E94691E80917B
:10351000E20084608093E20008958CE996E00E94C6
:1035200044041092DE01089588E996E00C94440466
:1035300084E996E00C94440480E996E00E944404F7
:103540000C9400172091C8012F5F822F62E30E9424
:103550001221992319F02093C80108951092C801EF
:103560008091C901882371F18091DF01843041F598
:103570008091E9008F702091EC00922F917020FDD6
:1035800090E8892B93E09093E9009091EB0090FFF5
:1035900014C09091EE0097FF10C09091E80095FF45
:1035A00003C01092F100F9CF9091E80090FF05C0A0
:1035B0009091E8009E779093E8008F708093E900E7
:1035C0001092C901089542E061EC81E00E94861DDD
:1035D00042E061EC82E00E94861D42E261EC83E001
:1035E0000C94861D8091E101833009F453C030F4BE
:1035F000813071F0823009F48CC008958A3009F46A
:1036000078C08B3009F45EC0893009F09AC020C0C0
:103610008091E001813A09F094C08091E800877FB1
:103620008093E8008091E4019091E501892B21F4D9
:1036300068E08AEC91E003C060E080E090E070E038
:103640000E94C21C8091E8008B778093E800089567
:103650008091E001813209F074C08091E401909181
:10366000E501892B09F06DC08091E800877F809388
:10367000E8008091E80082FD05C08091DF018111A2
:10368000F8CF5FC08091F1008093D2018091E80073
:103690008B7753C08091E001813A09F052C080914C
:1036A000E4019091E501892B09F04BC08091E8007D
:1036B000877F8093E8008091E80080FFFCCF8091B5
:1036C0000C0136C08091E0018132D9F58091E4018E
:1036D0009091E501892BA9F58091E800877F80937F
:1036E000E8000E94BB1D8091E20180930C010C94C4
:1036F000900F8091E001813221F58091E800877F71
:103700008093E8000E94BB1D8091E3018093D30168
:1037100008958091E001813AA1F48091E800877FCB
:103720008093E8008091E80080FFFCCF8091D30176
:103730008093F1008091E8008E778093E8000C94EC
:10374000BB1D089584B7877F84BF0FB6F894A895F2
:1037500080916000886180936000109260000FBECD
:1037600080E880936100109261000E94060B0E9425
:103770000C1E0E94691E8091E20084608093E2002A
:1037800085E799E10E94CF1578940E94F7200E9466
:103790000A0B82E091E00E947F0A8FE796E00E9488
:1037A00044048091DF01853089F48BE796E00E9424
:1037B00044040E94B6168091DD01882391F30E9493
:1037C000E816882371F30E94611CEBCF0E943E0B28
:1037D000E8CF0C94EB1B292F332723303105C9F098
:1037E00064F42130310581F02230310509F049C0FF
:1037F0008BE590E028ED36E048C02132310521F11B
:103800002232310571F13DC082E190E023E337E0DF
:103810003CC099278130910571F02CF4892B89F5F2
:10382000E4EDF6E00DC08230910541F0039749F5D3
:10383000E4EAF6E005C0E6EBF6E002C0EAEAF6E00C
:10384000849190E09F0121C063307105D0F4660F30
:10385000771FFB01EA5DFE4F2081318189E090E016
:1038600014C06330710568F4FB01EE0FFF1FE05ECA
:10387000FE4F20813181FB01E35EFE4F808190E0AD
:1038800004C080E090E020E030E0FA013183208342
:1038900008950895CF93C82F0E94491CC093D40166
:1038A000CF9108958091DF01843011F081E0089577
:1038B00082E008958091D401811102C00C94521CC1
:1038C000089580E189BD82E189BD09B400FEFDCF84
:1038D0008091D8008F7D8093D8008091E000826035
:1038E0008093E0008091E00081FDFCCF0895CF92AD
:1038F000DF92EF92FF920F931F93CF93DF93EC0130
:103900008B016A010E94DA1D811133C0C114D104F8
:1039100039F0F60180819181081B190BC80FD91F5E
:10392000E12CF12C0115110519F18091E80085FDBC
:1039300016C08091E8008E778093E800C114D1040E
:1039400049F0F60180819181E80EF91EF182E08252
:1039500085E00FC00E94DA1D882321F30AC08991F7
:103960008093F10001501109FFEFEF1AFF0ADACF3F
:1039700080E0DF91CF911F910F91FF90EF90DF904A
:10398000CF9008952091E6013091E701261737077F
:1039900048F06115710539F42091E8002E772093E5
:1039A000E80001C0B90140E061157105A9F120915D
:1039B000DF01222309F443C0253009F442C02091DD
:1039C000E80023FD40C02091E80022FD32C0209194
:1039D000E80020FFE9CF4091F3002091F20030E0B1
:1039E000342BFC01CF016115710559F028303105E8
:1039F00040F481918093F100615071092F5F3F4F36
:103A0000F1CF41E02830310509F040E02091E80095
:103A10002E772093E800C8CF4111C9CF0AC080910A
:103A2000DF01882361F0853061F08091E80083FD3B
:103A30000AC08091E80082FFF2CF80E0089582E022
:103A4000089583E0089581E008952091E601309182
:103A5000E7012617370748F06115710539F4209101
:103A6000E8002E772093E80001C0B901FC0120E0B6
:103A70006115710591F18091DF01882309F440C03F
:103A8000853009F43FC08091E80083FD3DC08091FE
:103A9000E80082FD2FC08091E80080FFE9CF2091EF
:103AA000F3008091F20090E0922B6115710559F0BE
:103AB0008830910540F424912093F10031966150B3
:103AC00071090196F2CF21E0089709F020E080917A
:103AD000E8008E778093E800CBCF2111CCCF0AC0CD
:103AE0008091DF01882361F0853061F08091E800EA
:103AF00083FD0AC08091E80082FFF2CF80E0089544
:103B000082E0089583E0089581E00895982F97302A
:103B100058F59093E900981739F07091EC002091D6
:103B2000ED005091F00003C0242F762F50E021FFCC
:103B300019C03091EB003E7F3093EB003091ED00E7
:103B40003D7F3093ED003091EB0031603093EB001E
:103B50007093EC002093ED005093F0002091EE0064
:103B600027FF07C09F5FD3CF8F708093E90081E06C
:103B7000089580E008958091E00187FF11C0809151
:103B8000E80082FD05C08091DF018111F8CF11C0EE
:103B90008091E8008B770BC08091DF01882349F08A
:103BA0008091E80080FFF8CF8091E8008E778093C5
:103BB000E80008952091E4003091E50095E64091F9
:103BC000EC00842F817040FF22C08091E80080FDCE
:103BD0001CC08091DF01882391F0853091F08091A5
:103BE000EB0085FD10C04091E4005091E5004217C4
:103BF000530729F39A01915011F784E0089582E068
:103C0000089583E0089581E0089580E0089540914B
:103C1000E80042FFDECF08950E947A1E0E94821EB5
:103C2000E0EEF0E0808181608083E8EDF0E080816B
:103C30008F77808319BCA7EDB0E08C918E7F8C9339
:103C400080818F7E80831092DE0108950F931F93F1
:103C5000CF93DF930E947A1E0E94821EC8EDD0E0AF
:103C600088818F77888388818068888388818F7D29
:103C7000888319BC1092DF011092DB011092DD01E4
:103C80001092DC0100EE10E0F80180818B7F8083D0
:103C900088818160888342E060E080E00E94861D28
:103CA000E1EEF0E080818E7F8083E2EEF0E08081C3
:103CB00081608083808188608083F80180818E7F2D
:103CC0008083888180618883DF91CF911F910F91DC
:103CD0000895E8EDF0E080818F7E8083E7EDF0E0ED
:103CE00080818160808384E082BF81E08093DE01F7
:103CF0000C94261EE8EDF0E080818E7F8083109288
:103D0000E20008951092DA001092E10008951F92E7
:103D10000F920FB60F9211242F933F934F935F93FF
:103D20006F937F938F939F93AF93BF93EF93FF9383
:103D30008091E10082FF0BC08091E20082FF07C00A
:103D40008091E1008B7F8093E1000E94A21A809114
:103D5000DA0080FF1FC08091D80080FF1BC08091D7
:103D6000DA008E7F8093DA008091D90080FF0DC049
:103D700080E189BD82E189BD09B400FEFDCF81E00B
:103D80008093DF010E947B1A05C019BC1092DF01ED
:103D90000E948D1A8091E10080FF19C08091E2009D
:103DA00080FF15C08091E2008E7F8093E2008091B9
:103DB000E20080618093E2008091D800806280936D
:103DC000D80019BC85E08093DF010E94981A809189
:103DD000E10084FF30C08091E20084FF2CC080E1CC
:103DE00089BD82E189BD09B400FEFDCF8091D80074
:103DF0008F7D8093D8008091E1008F7E8093E100D9
:103E00008091E2008F7E8093E2008091E2008160E9
:103E10008093E2008091DB01882311F084E007C0E9
:103E20008091E30087FD02C081E001C083E08093C0
:103E3000DF010E949C1A8091E10083FF29C08091DC
:103E4000E20083FF25C08091E100877F8093E1003D
:103E500082E08093DF011092DB018091E1008E7F90
:103E60008093E1008091E2008E7F8093E200809158
:103E7000E20080618093E20042E060E080E00E9426
:103E8000861D8091F00088608093F0000E94941A53
:103E9000FF91EF91BF91AF919F918F917F916F9122
:103EA0005F914F913F912F910F900FBE0F901F90F8
:103EB00018951F920F920FB60F9211242F933F93D4
:103EC0004F935F936F937F938F939F93AF93BF9322
:103ED000CF93DF93EF93FF93C091E900CF70809170
:103EE000EC00D82FD17080FDD0E81092E9008091CD
:103EF000F000877F8093F00078940E949D1F1092BD
:103F0000E9008091F00088608093F000CD2BCF70A5
:103F1000C093E900FF91EF91DF91CF91BF91AF91F5
:103F20009F918F917F916F915F914F913F912F91D1
:103F30000F900FBE0F901F9018951F93CF93DF9394
:103F4000CDB7DEB7AA970FB6F894DEBF0FBECDBFD0
:103F5000E0EEF1E088E08E0F9091F10091938E13E6
:103F6000FBCF0E94F21A8091E80083FF28C1809164
:103F7000E0019091E101492F50E04A30510508F0ED
:103F80001EC1FA01E556FF4F0C941E21803821F026
:103F9000823809F014C108C08091DC019091DD01E4
:103FA000992389F082600FC08091E4018F7087307F
:103FB00008F005C18093E9008091EB0085FB88271C
:103FC00080F91092E9009091E800977F9093E800C3
:103FD0008093F1001092F100D0C0282F2D7F09F0BE
:103FE000EEC0882319F0823061F0E9C08091E201CF
:103FF000813009F0E4C0933009F080E08093DD0166
:104000002EC08091E20181112AC08091E4018F705D
:104010002FEF280F263008F0D2C08093E9002091BE
:10402000EB0020FF1CC0933021F48091EB008062F4
:1040300014C09091EB0090619093EB0021E030E090
:10404000A90102C0440F551F8A95E2F74093EA0088
:104050001092EA008091EB0088608093EB00109250
:10406000E9008091E800877F8093E8000E94BB1DF3
:10407000A6C08111A4C01091E2011F778091E300D6
:104080008078812B8093E3008091E800877F809384
:10409000E8000E94BB1D8091E80080FFFCCF80916A
:1040A000E30080688093E300111102C082E001C048
:1040B00083E08093DF0183C08058823008F07FC0A6
:1040C0008091E2019091E3018C3D53E0950779F5F1
:1040D00083E08A838AE289834FB7F894DE011396DE
:1040E00020E03EE051E2E32FF0E050935700E491EE
:1040F00020FF03C0E295EF703F5FEF708E2F90E0DE
:10410000EA3010F0C79601C0C0968D939D932F5F43
:10411000243149F74FBF8091E800877F8093E80002
:104120006AE270E0CE0101960E94C21C15C0609147
:10413000E4017091E501AE014F5F5F4F0E94E91B02
:10414000BC01892BE1F19091E800977F9093E80002
:1041500089819A810E94251D8091E8008B77809348
:10416000E8002DC0803859F58091E800877F809362
:10417000E8008091DB018093F1008091E8008E7768
:1041800073CF81111CC09091E2019230C0F48091F4
:10419000E800877F8093E8009093DB010E94BB1DBD
:1041A0008091DB01811106C08091E30087FD02C090
:1041B00081E001C084E08093DF010E94E31A8091D6
:1041C000E80083FF0AC08091E800877F8093E800C1
:1041D0008091EB0080628093EB00AA960FB6F89472
:1041E000DEBF0FBECDBFDF91CF911F910895CF935A
:1041F0008091DF018823A1F0C091E900CF709091F8
:10420000EC00892F817090FD80E8C82B1092E900A6
:104210008091E80083FD0E949D1FCF70C093E9004C
:10422000CF910895991B79E004C0991F961708F063
:10423000961B881F7A95C9F780950895EE0FFF1F8A
:104240000590F491E02D0994F999FECF92BD81BDBE
:10425000F89A992780B50895A8E1B0E042E050E0CF
:104260000C945821262FF999FECF92BD81BDF89A62
:10427000019700B4021639F01FBA20BD0FB6F894AA
:10428000FA9AF99A0FBE08950396272F0E943321B8
:104290000E943221252F0E943321242F0C94332198
:1042A0000196272F0E9433210C943221DC01CB018F
:1042B000FC01F999FECF06C0F2BDE1BDF89A319636
:1042C00000B40D9241505040B8F70895F894FFCFD4
:1042D000B9017119481A7419131AD81901F6F5F4AD
:1042E000F1F092939594969734676636354036226E
:0C42F0009D0767074507EA0603071C0747
:00000001FF
